:100000000C945B000C9483000C9483000C9483008C
:100010000C9483000C9483000C9483000C94830054
:100020000C9483000C9483000C9483000C94830044
:100030000C9483000C9483000C9483000C94830034
:100040000C9499020C9483000C941A050C94830070
:100050000C9483000C9483000C9483000C94830014
:100060000C9483000C948300000024272A000025B0
:10007000282B000023262904040404040404040299
:100080000202020202030303030303010204081035
:100090002040800102040810200102040810200002
:1000A0000000070002010000030406000000000039
:1000B00000000000F10011241FBECFEFD4E0DEBF2E
:1000C000CDBF11E0A0E0B1E0E6E8FBE002C00590A2
:1000D0000D92A830B107D9F711E0A8E0B1E001C056
:1000E0001D92A23AB107E1F710E0C6EBD0E004C0E0
:1000F0002297FE010E94BD05C43BD107C9F70E94AB
:10010000EA000C94C1050C940000CF93DF9380E0CB
:100110000E947903EC0180910801909109018C17EC
:100120009D073CF481E090E090930B0180930A01DD
:1001300027C080910A0190910B01892B09F18091D0
:10014000100190911101A0911201B0911301209121
:100150000C0130910D01AC01421B530B90930D012A
:1001600080930C01662757FD6095762F20E030E0E4
:1001700084E191E00E94790210920B0110920A0131
:10018000D0930901C0930801809110019091110151
:10019000A0911201B09113010196A11DB11D809390
:1001A000100190931101A0931201B0931301DF91FC
:1001B000CF91089540E855E260E070E084E191E07D
:1001C0000E94050180E00E947903909309018093C9
:1001D000080108950E943C030E94DA000E948500F5
:1001E000FDCF84E091E09093150180931401089570
:1001F000862F0E94D90408950E94110508950E9437
:10020000F20408950E94E1040895CB01BA010E940E
:10021000A0040895DC01ED91FC910190F081E02DA6
:1002200009950895DC01ED91FC910190F081E02D9C
:10023000099508950F931F93CF93DF938C01EB01E2
:1002400009C02196D801ED91FC910190F081E02D3B
:10025000C801099568816623A1F7DF91CF911F91AD
:100260000F9108950F931F938C01DC01ED91FC9188
:100270000190F081E02D6DE00995D801ED91FC91A0
:100280000190F081E02D6AE0C80109951F910F915E
:1002900008950F931F938C01DC01ED91FC91019067
:1002A000F081E02D0995C8010E9432011F910F9144
:1002B00008950F931F938C010E941A01C8010E9498
:1002C00032011F910F9108950F931F938C01DC0150
:1002D000ED91FC910190F081E02D0995C8010E94FB
:1002E00032011F910F9108952F923F924F925F928A
:1002F0006F927F928F929F92AF92BF92CF92DF9236
:10030000EF92FF920F931F93DF93CF93CDB7DEB79A
:10031000A0970FB6F894DEBF0FBECDBF1C016A01D7
:100320007B01411551056105710549F4DC01ED9131
:10033000FC910190F081E02D60E3099554C0882480
:1003400099245401422E55246624772401E010E0BC
:100350000C0F1D1F080D191DC701B601A301920145
:100360000E946A05F80160830894811C911CA11CFD
:10037000B11CC701B601A30192010E946A05C9011F
:10038000DA016C017D01C114D104E104F104F1F63C
:1003900081E0E82EF12CEC0EFD1EE80CF91C3E016C
:1003A0000894611C711CD501C4010197A109B10910
:1003B0006C01C818D90814C0F601EE0DFF1D60814C
:1003C0006A3010F4605D01C0695CD101ED91FC916F
:1003D0000190F081E02DC10109950894E108F10830
:1003E0006E147F0449F7A0960FB6F894DEBF0FBED7
:1003F000CDBFCF91DF911F910F91FF90EF90DF90D4
:10040000CF90BF90AF909F908F907F906F905F90B4
:100410004F903F902F9008952AE00E947401089514
:100420000F931F938C010E940C02C8010E9432019D
:100430001F910F910895AB0160E070E00E940C02E3
:1004400008950F931F938C01AB0160E070E00E9450
:100450000C02C8010E9432011F910F910895EF9282
:10046000FF920F931F93CF93DF93EC017A018B01DF
:1004700077FF0FC0E881F9810190F081E02D6DE2F6
:10048000099510950095F094E094E11CF11C011D74
:10049000111D2AE0B801A701CE010E947401DF916D
:1004A000CF911F910F91FF90EF9008950F931F939D
:1004B0008C010E942F02C8010E9432011F910F91EE
:1004C0000895AB01662757FD6095762F0E942F0295
:1004D00008950F931F938C01AB01662757FD60951C
:1004E000762F0E942F02C8010E9432011F910F91A6
:1004F0000895DC012115310541F4ED91FC91019045
:10050000F081E02D642F099508952A30310519F402
:100510000E942F0208950E94740108950F931F9363
:100520008C010E947902C8010E9432011F910F9133
:1005300008951F920F920FB60F9211242F938F934D
:100540009F93AF93BF938091160190911701A09153
:100550001801B09119018050904CAF4FBF4F80935C
:10056000160190931701A0931801B093190127C0A9
:100570008091160190911701A0911801B091190175
:1005800080589E43A040B04080931601909317017D
:10059000A0931801B093190180911A0190911B0149
:1005A000A0911C01B0911D010196A11DB11D809368
:1005B0001A0190931B01A0931C01B0931D0180911F
:1005C000160190911701A0911801B091190181585D
:1005D0009E43A040B04060F6BF91AF919F918F9134
:1005E0002F910F900FBE0F901F9018958FB7F89412
:1005F00020911A0130911B0140911C0150911D0165
:100600008FBFB901CA010895EF92FF920F931F9314
:100610007B018C018FB7F89440911A0150911B0116
:1006200060911C0170911D018FBF2FB7F8948091CC
:100630001A0190911B01A0911C01B0911D012FBFC7
:10064000841B950BA60BB70B8E159F05A007B10752
:1006500060F31F910F91FF90EF900895019759F06B
:10066000FC01EE0FFF1FEE0FFF1F32978FB7F894BC
:100670003197F1F78FBF0895789484B5826084BD77
:1006800084B5816084BD85B5826085BD85B5816096
:1006900085BDEEE6F0E0808181608083E1E8F0E0F6
:1006A000808182608083808181608083E0E8F0E0E7
:1006B000808181608083E1EBF0E0808184608083D1
:1006C000E0EBF0E0808181608083EAE7F0E0808108
:1006D0008460808380818260808380818160808368
:1006E0008081806880831092C10008958093060104
:1006F00008958F70909106019295990F990F907CB3
:10070000982B90937C0080917A00806480937A008B
:1007100080917A0086FDFCCF20917800409179008D
:10072000942F80E030E0282B392BC90108951F93C6
:10073000CF93DF93182FEB0161E00E94EB03E12FD1
:10074000F0E0E156FF4F8491833051F480918000B6
:10075000806880938000D0938900C093880037C060
:10076000843051F480918000806280938000D09327
:100770008B00C0938A002BC0813029F484B5806837
:1007800084BDC7BD24C0823029F484B5806284BD95
:10079000C8BD1DC0863041F48091B0008068809350
:1007A000B000C093B30013C0873041F48091B00013
:1007B00080628093B000C093B40009C0C038D105F6
:1007C00014F460E001C061E0812F0E940904DF9110
:1007D000CF911F910895282F30E0C90185579F4F71
:1007E000FC01949129583F4FF9018491882381F0AD
:1007F000E82FF0E0E859FF4FE491F0E0662329F498
:10080000808190958923808308958081892B8083BE
:100810000895482F50E0CA0181569F4FFC01249152
:10082000CA0185579F4FFC01949149585F4FFA01C7
:1008300034913323C1F1222331F1233021F480910B
:1008400080008F7705C0243031F4809180008F7D47
:100850008093800018C0213019F484B58F7704C0CC
:10086000223021F484B58F7D84BD0DC0263021F463
:100870008091B0008F7705C0273029F48091B000B7
:100880008F7D8093B000E32FF0E0E359FF4FE491B8
:10089000F0E0662329F48081909589238083089570
:1008A0008081892B80830895482F50E0CA018156AA
:1008B0009F4FFC012491CA0185579F4FFC019491E1
:1008C00049585F4FFA013491332319F420E030E0A6
:1008D00035C0222331F1233021F4809180008F77BD
:1008E00005C0243031F4809180008F7D809380009A
:1008F00018C0213019F484B58F7704C0223021F458
:1009000084B58F7D84BD0DC0263021F48091B00068
:100910008F7705C0273029F48091B0008F7D8093B8
:10092000B000E32FF0E0EE58FF4FE491F0E080815B
:1009300020E030E0892311F021E030E0C901089582
:10094000EF92FF920F931F937B018C0122E030E026
:1009500040E050E00E948C05205C3D4B404F5F4FD3
:10096000CA01B901A80197010E948C05C901DA01E9
:100970000197A109B109292F3A2F4B2F552747FD80
:100980005A950196A11DB11D2093C50081508093F9
:10099000C400E1ECF0E08081806180838081886028
:1009A00080838081806880831F910F91FF90EF90FA
:1009B0000895982F8091C00085FFFCCF9093C600CA
:1009C000089580911E0190911F0180589F4F2091A2
:1009D000200130912101821B930B60E870E00E949E
:1009E00057050895409120015091210180911E01E9
:1009F00090911F018417950719F42FEF3FEF0FC057
:100A0000FA01EE5DFE4F2081CA01019660E870E0B8
:100A10000E945705909321018093200130E0C90185
:100A20000895809120019091210190931F0180935E
:100A30001E0108951F920F920FB60F9211242F934B
:100A40003F934F935F936F937F938F939F93AF9356
:100A5000BF93EF93FF934091C600E0911E01F09188
:100A60001F01CF01019660E870E00E9457059C01CC
:100A700080912001909121012817390739F0EE5D0E
:100A8000FE4F408330931F0120931E01FF91EF9191
:100A9000BF91AF919F918F917F916F915F914F9196
:100AA0003F912F910F900FBE0F901F90189597FBBD
:100AB000092E07260AD077FD04D049D006D00020A1
:100AC0001AF4709561957F4F0895F6F7909581958A
:100AD0009F4F0895A1E21A2EAA1BBB1BFD010DC05A
:100AE000AA1FBB1FEE1FFF1FA217B307E407F507DE
:100AF00020F0A21BB30BE40BF50B661F771F881FBA
:100B0000991F1A9469F760957095809590959B014F
:100B1000AC01BD01CF01089597FB092E05260ED02B
:100B200057FD04D0D7DF0AD0001C38F4509540950B
:100B3000309521953F4F4F4F5F4F0895F6F79095B1
:100B40008095709561957F4F8F4F9F4F0895AA1B99
:100B5000BB1B51E107C0AA1FBB1FA617B70710F0A8
:100B6000A61BB70B881F991F5A95A9F780959095DA
:100B7000BC01CD010895EE0FFF1F0590F491E02D0B
:060B80000994F894FFCF78
:080B860000000000F80001006E
:00000001FF
